{
  "contractName": "EscrowDapp",
  "abi": [
    {
      "inputs": [
        {
          "internalType": "address payable",
          "name": "_escrow_address",
          "type": "address"
        }
      ],
      "stateMutability": "nonpayable",
      "type": "constructor"
    },
    {
      "anonymous": false,
      "inputs": [
        {
          "indexed": false,
          "internalType": "address",
          "name": "_project_owner",
          "type": "address"
        }
      ],
      "name": "LowRating",
      "type": "event"
    },
    {
      "inputs": [
        {
          "internalType": "address",
          "name": "",
          "type": "address"
        }
      ],
      "name": "customers",
      "outputs": [
        {
          "internalType": "uint256",
          "name": "rating",
          "type": "uint256"
        }
      ],
      "stateMutability": "view",
      "type": "function",
      "constant": true
    },
    {
      "inputs": [
        {
          "internalType": "uint256",
          "name": "",
          "type": "uint256"
        }
      ],
      "name": "projects",
      "outputs": [
        {
          "internalType": "bool",
          "name": "project_started",
          "type": "bool"
        },
        {
          "internalType": "bool",
          "name": "exist",
          "type": "bool"
        },
        {
          "internalType": "string",
          "name": "name",
          "type": "string"
        },
        {
          "internalType": "address payable",
          "name": "project_owner",
          "type": "address"
        },
        {
          "internalType": "uint256",
          "name": "project_start_timestamp",
          "type": "uint256"
        },
        {
          "internalType": "uint256",
          "name": "project_end_timestamp",
          "type": "uint256"
        }
      ],
      "stateMutability": "view",
      "type": "function",
      "constant": true
    },
    {
      "inputs": [],
      "name": "totalProjects",
      "outputs": [
        {
          "internalType": "uint256",
          "name": "",
          "type": "uint256"
        }
      ],
      "stateMutability": "view",
      "type": "function",
      "constant": true
    },
    {
      "inputs": [
        {
          "internalType": "string",
          "name": "_name",
          "type": "string"
        },
        {
          "internalType": "uint256",
          "name": "_project_start_timestamp",
          "type": "uint256"
        },
        {
          "internalType": "uint256",
          "name": "_project_end_timestamp",
          "type": "uint256"
        }
      ],
      "name": "createProject",
      "outputs": [],
      "stateMutability": "nonpayable",
      "type": "function"
    },
    {
      "inputs": [
        {
          "internalType": "uint256",
          "name": "project_id",
          "type": "uint256"
        }
      ],
      "name": "startProject",
      "outputs": [],
      "stateMutability": "payable",
      "type": "function",
      "payable": true
    }
  ],
  "bytecode": "0x608060405260008060006101000a81548160ff0219169083151502179055506000600255600160035534801561003457600080fd5b50604051610a8a380380610a8a8339818101604052602081101561005757600080fd5b810190808051906020019092919050505080600160006101000a81548173ffffffffffffffffffffffffffffffffffffffff021916908373ffffffffffffffffffffffffffffffffffffffff16021790555033600060016101000a81548173ffffffffffffffffffffffffffffffffffffffff021916908373ffffffffffffffffffffffffffffffffffffffff16021790555050610990806100fa6000396000f3fe60806040526004361061004a5760003560e01c8063107046bd1461004f578063336989ae146101405780639c361e4e146101a5578063f3a6ac5f146101d0578063f62bf2de146102ac575b600080fd5b34801561005b57600080fd5b506100886004803603602081101561007257600080fd5b81019080803590602001909291905050506102da565b6040518087151581526020018615158152602001806020018573ffffffffffffffffffffffffffffffffffffffff168152602001848152602001838152602001828103825286818151815260200191508051906020019080838360005b838110156101005780820151818401526020810190506100e5565b50505050905090810190601f16801561012d5780820380516001836020036101000a031916815260200191505b5097505050505050505060405180910390f35b34801561014c57600080fd5b5061018f6004803603602081101561016357600080fd5b81019080803573ffffffffffffffffffffffffffffffffffffffff1690602001909291905050506103e8565b6040518082815260200191505060405180910390f35b3480156101b157600080fd5b506101ba610406565b6040518082815260200191505060405180910390f35b3480156101dc57600080fd5b506102aa600480360360608110156101f357600080fd5b810190808035906020019064010000000081111561021057600080fd5b82018360208201111561022257600080fd5b8035906020019184600183028401116401000000008311171561024457600080fd5b91908080601f016020809104026020016040519081016040528093929190818152602001838380828437600081840152601f19601f820116905080830192505050505050509192919290803590602001909291908035906020019092919050505061040c565b005b6102d8600480360360208110156102c257600080fd5b8101908080359060200190929190505050610592565b005b60056020528060005260406000206000915090508060000160009054906101000a900460ff16908060000160019054906101000a900460ff1690806001018054600181600116156101000203166002900480601f0160208091040260200160405190810160405280929190818152602001828054600181600116156101000203166002900480156103ac5780601f10610381576101008083540402835291602001916103ac565b820191906000526020600020905b81548152906001019060200180831161038f57829003601f168201915b5050505050908060020160009054906101000a900473ffffffffffffffffffffffffffffffffffffffff16908060030154908060040154905086565b60046020528060005260406000206000915090508060000154905081565b60025481565b3373ffffffffffffffffffffffffffffffffffffffff16600060019054906101000a900473ffffffffffffffffffffffffffffffffffffffff1673ffffffffffffffffffffffffffffffffffffffff16146104b2576040517f08c379a000000000000000000000000000000000000000000000000000000000815260040180806020018281038252602c81526020018061092f602c913960400191505060405180910390fd5b8260056000600254815260200190815260200160002060010190805190602001906104de929190610891565b50600060056000600254815260200190815260200160002060000160006101000a81548160ff021916908315150217905550600160056000600254815260200190815260200160002060000160016101000a81548160ff02191690831515021790555081600560006002548152602001908152602001600020600301819055508060056000600254815260200190815260200160002060040181905550600260008154809291906001019190505550505050565b600115156005600083815260200190815260200160002060000160019054906101000a900460ff1615151461062f576040517f08c379a00000000000000000000000000000000000000000000000000000000081526004018080602001828103825260128152602001807f556e6b6e6f776e2050726f6a656374204944000000000000000000000000000081525060200191505060405180910390fd5b600015156005600083815260200190815260200160002060000160009054906101000a900460ff161515146106cc576040517f08c379a00000000000000000000000000000000000000000000000000000000081526004018080602001828103825260178152602001807f50726f6a65637420616c7265616479207374617274656400000000000000000081525060200191505060405180910390fd5b426005600083815260200190815260200160002060030154111561077957600160009054906101000a900473ffffffffffffffffffffffffffffffffffffffff1673ffffffffffffffffffffffffffffffffffffffff166108fc60646003548161073257fe5b043373ffffffffffffffffffffffffffffffffffffffff1631029081150290604051600060405180830381858888f19350505050158015610777573d6000803e3d6000fd5b505b336005600083815260200190815260200160002060020160006101000a81548173ffffffffffffffffffffffffffffffffffffffff021916908373ffffffffffffffffffffffffffffffffffffffff16021790555060016005600083815260200190815260200160002060000160006101000a81548160ff0219169083151502179055503373ffffffffffffffffffffffffffffffffffffffff166108fc6064600a600354028161082657fe5b04600160009054906101000a900473ffffffffffffffffffffffffffffffffffffffff1673ffffffffffffffffffffffffffffffffffffffff1631029081150290604051600060405180830381858888f1935050505015801561088d573d6000803e3d6000fd5b5050565b828054600181600116156101000203166002900490600052602060002090601f016020900481019282601f106108d257805160ff1916838001178555610900565b82800160010185558215610900579182015b828111156108ff5782518255916020019190600101906108e4565b5b50905061090d9190610911565b5090565b5b8082111561092a576000816000905550600101610912565b509056fe4f6e6c79206f776e657220697320616c6c6f77656420746f20637265617465207468652070726f6a6563742ea2646970667358221220bfabe779294bbc0e661c7d37c28ae9bd82a5039009fb882691869d316e4d042664736f6c63430007000033",
  "immutableReferences": {},
  "source": "// SPDX-License-Identifier: MIT\npragma solidity >=0.4.22 <0.9.0;\n\ncontract EscrowDapp {\n    struct Project {\n        bool project_started;\n        bool exist;\n        string name;\n        address payable project_owner;\n        uint256 project_start_timestamp;\n        uint256 project_end_timestamp;\n    }\n\n    struct Customer {\n        uint256 rating;\n    }\n\n    bool is_wallet_blocked = false;\n    address payable contract_owner;\n    address payable escrow_address;\n    uint256 public totalProjects = 0;\n    uint256 one = 1;\n\n    mapping(address => Customer) public customers;\n    mapping(uint256 => Project) public projects;\n\n    event LowRating(address _project_owner);\n\n    constructor(address payable _escrow_address) public {\n        escrow_address = _escrow_address;\n        contract_owner = msg.sender;\n    }\n\n    function createProject(\n        string memory _name,\n        uint256 _project_start_timestamp,\n        uint256 _project_end_timestamp\n    ) public {\n        require(\n            contract_owner == msg.sender,\n            \"Only owner is allowed to create the project.\"\n        );\n        projects[totalProjects].name = _name;\n        projects[totalProjects].project_started = false;\n        projects[totalProjects].exist = true;\n        // projects[totalProjects].project_owner = msg.sender;\n        projects[totalProjects]\n            .project_start_timestamp = _project_start_timestamp;\n        projects[totalProjects].project_end_timestamp = _project_end_timestamp;\n        totalProjects++;\n    }\n\n    function startProject(uint256 project_id) public payable {\n        require(projects[project_id].exist == true, \"Unknown Project ID\");\n        require(projects[project_id].project_started == false, \"Project already started\");\n        if (projects[project_id].project_start_timestamp > block.timestamp) {\n            // deduct 1 per cent amount from the wallet\n            escrow_address.transfer(address(msg.sender).balance * (one / 100));\n        }\n        projects[project_id].project_owner = msg.sender;\n        projects[project_id].project_started = true;\n        // release 10% if project starts\n        msg.sender.transfer(address(escrow_address).balance * ((one * 10) / 100));\n    }\n\n    // function rateProject(uint256 _rating) public payable {\n    //     require(_rating < 0 || _rating > 10, \"Invalid rating\");\n    //     // unblock if blocked\n    //     if (is_wallet_blocked) is_wallet_blocked = false;\n    //     // add to customers\n    //     customers[address(this)].rating = _rating;\n    //     if (_rating == 7) {\n    //         // warning issued to a private entity\n    //         emit LowRating(project_owner);\n    //     } else if (_rating == 6) {\n    //         // 3 per cent deduction from the wallet\n    //         project_owner.transfer(\n    //             address(escrow_address).balance * ((one * 3) / 100)\n    //         );\n    //     } else if (_rating >= 5) {\n    //         // wallet blocked\n    //         is_wallet_blocked = true;\n    //     }\n    // }\n\n    // function completedProject(address payable _owner) public payable {\n    //     require(\n    //         _owner == project_owner,\n    //         \"Only owner is allowed to complete the project\"\n    //     );\n    //     if (project_end_timestamp < block.timestamp) {\n    //         // charge a fee for using the project from customer.\n    //     }\n    // }\n}\n",
  "sourcePath": "/home/sarath/Projects/EscrowDapp/Escrow-Dapp/contracts/EscrowDapp.sol",
  "compiler": {
    "name": "solc",
    "version": "0.7.0+commit.9e61f92b.Emscripten.clang"
  },
  "schemaVersion": "3.4.1",
  "updatedAt": "2021-06-23T10:46:24.121Z",
  "networkType": "ethereum",
  "devdoc": {
    "kind": "dev",
    "methods": {},
    "version": 1
  },
  "userdoc": {
    "kind": "user",
    "methods": {},
    "version": 1
  }
}