{
  "contractName": "EscrowDapp",
  "abi": [
    {
      "inputs": [],
      "stateMutability": "nonpayable",
      "type": "constructor"
    },
    {
      "anonymous": false,
      "inputs": [
        {
          "indexed": false,
          "internalType": "address",
          "name": "_project_owner",
          "type": "address"
        }
      ],
      "name": "LowRating",
      "type": "event"
    },
    {
      "stateMutability": "payable",
      "type": "fallback",
      "payable": true
    },
    {
      "inputs": [
        {
          "internalType": "uint256",
          "name": "",
          "type": "uint256"
        }
      ],
      "name": "projects",
      "outputs": [
        {
          "internalType": "bool",
          "name": "project_started",
          "type": "bool"
        },
        {
          "internalType": "bool",
          "name": "project_blocked",
          "type": "bool"
        },
        {
          "internalType": "bool",
          "name": "exist",
          "type": "bool"
        },
        {
          "internalType": "string",
          "name": "name",
          "type": "string"
        },
        {
          "internalType": "address payable",
          "name": "project_owner",
          "type": "address"
        },
        {
          "internalType": "uint256",
          "name": "project_start_timestamp",
          "type": "uint256"
        },
        {
          "internalType": "uint256",
          "name": "project_end_timestamp",
          "type": "uint256"
        }
      ],
      "stateMutability": "view",
      "type": "function",
      "constant": true
    },
    {
      "inputs": [],
      "name": "totalProjects",
      "outputs": [
        {
          "internalType": "uint256",
          "name": "",
          "type": "uint256"
        }
      ],
      "stateMutability": "view",
      "type": "function",
      "constant": true
    },
    {
      "inputs": [
        {
          "internalType": "string",
          "name": "_name",
          "type": "string"
        },
        {
          "internalType": "uint256",
          "name": "_project_start_timestamp",
          "type": "uint256"
        },
        {
          "internalType": "uint256",
          "name": "_project_end_timestamp",
          "type": "uint256"
        }
      ],
      "name": "createProject",
      "outputs": [],
      "stateMutability": "nonpayable",
      "type": "function"
    },
    {
      "inputs": [],
      "name": "contractBalance",
      "outputs": [
        {
          "internalType": "uint256",
          "name": "",
          "type": "uint256"
        }
      ],
      "stateMutability": "nonpayable",
      "type": "function"
    },
    {
      "inputs": [
        {
          "internalType": "uint256",
          "name": "_project_id",
          "type": "uint256"
        },
        {
          "internalType": "uint256",
          "name": "_weiAmount",
          "type": "uint256"
        }
      ],
      "name": "startProject",
      "outputs": [],
      "stateMutability": "payable",
      "type": "function",
      "payable": true
    },
    {
      "inputs": [
        {
          "internalType": "uint256",
          "name": "_project_id",
          "type": "uint256"
        },
        {
          "internalType": "uint256",
          "name": "_rating",
          "type": "uint256"
        },
        {
          "internalType": "string",
          "name": "_review",
          "type": "string"
        }
      ],
      "name": "rateProject",
      "outputs": [],
      "stateMutability": "payable",
      "type": "function",
      "payable": true
    },
    {
      "inputs": [
        {
          "internalType": "uint256",
          "name": "_project_id",
          "type": "uint256"
        }
      ],
      "name": "completedProject",
      "outputs": [],
      "stateMutability": "nonpayable",
      "type": "function"
    },
    {
      "inputs": [
        {
          "internalType": "uint256",
          "name": "_project_id",
          "type": "uint256"
        },
        {
          "internalType": "address",
          "name": "customer",
          "type": "address"
        }
      ],
      "name": "getRating",
      "outputs": [
        {
          "internalType": "string",
          "name": "",
          "type": "string"
        },
        {
          "internalType": "uint256",
          "name": "",
          "type": "uint256"
        }
      ],
      "stateMutability": "view",
      "type": "function",
      "constant": true
    }
  ],
  "bytecode": "0x60806040526000600155606460025534801561001a57600080fd5b50336000806101000a81548173ffffffffffffffffffffffffffffffffffffffff021916908373ffffffffffffffffffffffffffffffffffffffff1602179055506113ce8061006a6000396000f3fe60806040526004361061007f5760003560e01c80638b7afe2e1161004e5780638b7afe2e1461035e5780639c361e4e14610389578063eb4c8126146103b4578063f3a6ac5f146103ef57610080565b8063107046bd1461008257806329035baa1461017c5780634dd11bca1461024b57806364fbc7cf1461028357610080565b5b005b34801561008e57600080fd5b506100bb600480360360208110156100a557600080fd5b81019080803590602001909291905050506104cb565b60405180881515815260200187151581526020018615158152602001806020018573ffffffffffffffffffffffffffffffffffffffff168152602001848152602001838152602001828103825286818151815260200191508051906020019080838360005b8381101561013b578082015181840152602081019050610120565b50505050905090810190601f1680156101685780820380516001836020036101000a031916815260200191505b509850505050505050505060405180910390f35b6102496004803603606081101561019257600080fd5b810190808035906020019092919080359060200190929190803590602001906401000000008111156101c357600080fd5b8201836020820111156101d557600080fd5b803590602001918460018302840111640100000000831117156101f757600080fd5b91908080601f016020809104026020016040519081016040528093929190818152602001838380828437600081840152601f19601f8201169050808301925050505050505091929192905050506105ec565b005b6102816004803603604081101561026157600080fd5b8101908080359060200190929190803590602001909291905050506109e0565b005b34801561028f57600080fd5b506102dc600480360360408110156102a657600080fd5b8101908080359060200190929190803573ffffffffffffffffffffffffffffffffffffffff169060200190929190505050610cbe565b6040518080602001838152602001828103825284818151815260200191508051906020019080838360005b83811015610322578082015181840152602081019050610307565b50505050905090810190601f16801561034f5780820380516001836020036101000a031916815260200191505b50935050505060405180910390f35b34801561036a57600080fd5b50610373610e16565b6040518082815260200191505060405180910390f35b34801561039557600080fd5b5061039e610e1e565b6040518082815260200191505060405180910390f35b3480156103c057600080fd5b506103ed600480360360208110156103d757600080fd5b8101908080359060200190929190505050610e24565b005b3480156103fb57600080fd5b506104c96004803603606081101561041257600080fd5b810190808035906020019064010000000081111561042f57600080fd5b82018360208201111561044157600080fd5b8035906020019184600183028401116401000000008311171561046357600080fd5b91908080601f016020809104026020016040519081016040528093929190818152602001838380828437600081840152601f19601f8201169050808301925050505050505091929192908035906020019092919080359060200190929190505050611025565b005b60036020528060005260406000206000915090508060000160009054906101000a900460ff16908060000160019054906101000a900460ff16908060000160029054906101000a900460ff1690806001018054600181600116156101000203166002900480601f0160208091040260200160405190810160405280929190818152602001828054600181600116156101000203166002900480156105b05780601f10610585576101008083540402835291602001916105b0565b820191906000526020600020905b81548152906001019060200180831161059357829003601f168201915b5050505050908060020160009054906101000a900473ffffffffffffffffffffffffffffffffffffffff16908060030154908060040154905087565b6000821180156105fc5750600a82105b61066e576040517f08c379a000000000000000000000000000000000000000000000000000000000815260040180806020018281038252600e8152602001807f496e76616c696420726174696e6700000000000000000000000000000000000081525060200191505060405180910390fd5b600115156003600085815260200190815260200160002060000160009054906101000a900460ff1615151461070b576040517f08c379a00000000000000000000000000000000000000000000000000000000081526004018080602001828103825260138152602001807f50726f6a656374204e6f7420737461727465640000000000000000000000000081525060200191505060405180910390fd5b3373ffffffffffffffffffffffffffffffffffffffff166003600085815260200190815260200160002060020160009054906101000a900473ffffffffffffffffffffffffffffffffffffffff1673ffffffffffffffffffffffffffffffffffffffff1614156107e3576040517f08c379a000000000000000000000000000000000000000000000000000000000815260040180806020018281038252601a8152602001807f50726f6a656374206f776e65722063616e6e6f7420726174652e00000000000081525060200191505060405180910390fd5b6003600084815260200190815260200160002060000160019054906101000a900460ff161561083c5760006003600085815260200190815260200160002060000160016101000a81548160ff0219169083151502179055505b816003600085815260200190815260200160002060050160003373ffffffffffffffffffffffffffffffffffffffff1673ffffffffffffffffffffffffffffffffffffffff16815260200190815260200160002060010181905550806003600085815260200190815260200160002060050160003373ffffffffffffffffffffffffffffffffffffffff1673ffffffffffffffffffffffffffffffffffffffff168152602001908152602001600020600001908051906020019061090192919061126b565b506007821415610993577ff8ce4c0b9e0002218bb7a78aa378f0a9f49643963373811bc1289d6b1694d3006003600085815260200190815260200160002060020160009054906101000a900473ffffffffffffffffffffffffffffffffffffffff16604051808273ffffffffffffffffffffffffffffffffffffffff16815260200191505060405180910390a16109db565b60068214156109a1576109da565b600582106109d95760016003600085815260200190815260200160002060000160016101000a81548160ff0219169083151502179055505b5b5b505050565b600115156003600084815260200190815260200160002060000160029054906101000a900460ff16151514610a7d576040517f08c379a00000000000000000000000000000000000000000000000000000000081526004018080602001828103825260128152602001807f556e6b6e6f776e2050726f6a656374204944000000000000000000000000000081525060200191505060405180910390fd5b600015156003600084815260200190815260200160002060000160009054906101000a900460ff16151514610b1a576040517f08c379a00000000000000000000000000000000000000000000000000000000081526004018080602001828103825260178152602001807f50726f6a65637420616c7265616479207374617274656400000000000000000081525060200191505060405180910390fd5b4260036000848152602001908152602001600020600301541015610be4576001610b43476111a9565b02811015610b9c576040517f08c379a00000000000000000000000000000000000000000000000000000000081526004018080602001828103825260378152602001806113096037913960400191505060405180910390fd5b3073ffffffffffffffffffffffffffffffffffffffff166108fc829081150290604051600060405180830381858888f19350505050158015610be2573d6000803e3d6000fd5b505b336003600084815260200190815260200160002060020160006101000a81548173ffffffffffffffffffffffffffffffffffffffff021916908373ffffffffffffffffffffffffffffffffffffffff16021790555060016003600084815260200190815260200160002060000160006101000a81548160ff0219169083151502179055503373ffffffffffffffffffffffffffffffffffffffff166108fc600a610c8d476111a9565b029081150290604051600060405180830381858888f19350505050158015610cb9573d6000803e3d6000fd5b505050565b606060006003600085815260200190815260200160002060050160008473ffffffffffffffffffffffffffffffffffffffff1673ffffffffffffffffffffffffffffffffffffffff1681526020019081526020016000206000016003600086815260200190815260200160002060050160008573ffffffffffffffffffffffffffffffffffffffff1673ffffffffffffffffffffffffffffffffffffffff16815260200190815260200160002060010154818054600181600116156101000203166002900480601f016020809104026020016040519081016040528092919081815260200182805460018160011615610100020316600290048015610e045780601f10610dd957610100808354040283529160200191610e04565b820191906000526020600020905b815481529060010190602001808311610de757829003601f168201915b50505050509150915091509250929050565b600047905090565b60015481565b3373ffffffffffffffffffffffffffffffffffffffff166003600083815260200190815260200160002060020160009054906101000a900473ffffffffffffffffffffffffffffffffffffffff1673ffffffffffffffffffffffffffffffffffffffff1614610ede576040517f08c379a000000000000000000000000000000000000000000000000000000000815260040180806020018281038252602d815260200180611340602d913960400191505060405180910390fd5b600015156003600083815260200190815260200160002060000160019054906101000a900460ff16151514610f7b576040517f08c379a00000000000000000000000000000000000000000000000000000000081526004018080602001828103825260208152602001807f50726f6a65637420626c6f636b65642063616e6e6f7420636f6d706c6574652e81525060200191505060405180910390fd5b4260036000838152602001908152602001600020600401541015611022576003600082815260200190815260200160002060020160009054906101000a900473ffffffffffffffffffffffffffffffffffffffff1673ffffffffffffffffffffffffffffffffffffffff166108fc6046610ff4476111a9565b029081150290604051600060405180830381858888f19350505050158015611020573d6000803e3d6000fd5b505b50565b3373ffffffffffffffffffffffffffffffffffffffff1660008054906101000a900473ffffffffffffffffffffffffffffffffffffffff1673ffffffffffffffffffffffffffffffffffffffff16146110c9576040517f08c379a000000000000000000000000000000000000000000000000000000000815260040180806020018281038252602c81526020018061136d602c913960400191505060405180910390fd5b8260036000600154815260200190815260200160002060010190805190602001906110f592919061126b565b50600060036000600154815260200190815260200160002060000160006101000a81548160ff021916908315150217905550600160036000600154815260200190815260200160002060000160026101000a81548160ff02191690831515021790555081600360006001548152602001908152602001600020600301819055508060036000600154815260200190815260200160002060040181905550600160008154809291906001019190505550505050565b6000806111c16002548461120090919063ffffffff16565b905060006111f46002600a0a600254026111e66002548561121b90919063ffffffff16565b61125290919063ffffffff16565b90508092505050919050565b600081826001848601038161121157fe5b0402905092915050565b60008083141561122e576000905061124c565b600082840290508284828161123f57fe5b041461124757fe5b809150505b92915050565b60008082848161125e57fe5b0490508091505092915050565b828054600181600116156101000203166002900490600052602060002090601f016020900481019282601f106112ac57805160ff19168380011785556112da565b828001600101855582156112da579182015b828111156112d95782518255916020019190600101906112be565b5b5090506112e791906112eb565b5090565b5b808211156113045760008160009055506001016112ec565b509056fe50726f6a6563742074696d652063726f737365642e2041646420312070657263656e74206f6620636f6e747261637420616464726573734f6e6c79206f776e657220697320616c6c6f77656420746f20636f6d706c657465207468652070726f6a6563744f6e6c79206f776e657220697320616c6c6f77656420746f20637265617465207468652070726f6a6563742ea2646970667358221220ceee79e5acb753dd1ef11955044232f33a5b7fea21aaa9320e0a93d78b90bb0f64736f6c63430007000033",
  "immutableReferences": {},
  "source": "// SPDX-License-Identifier: MIT\npragma solidity >=0.4.22 <0.9.0;\n\nimport \"./SafeMath_library.sol\";\n\ncontract EscrowDapp {\n    using SafeMath for uint256;\n\n    struct Customer {\n        string review;\n        uint256 rating;\n    }\n    struct Project {\n        bool project_started;\n        bool project_blocked;\n        bool exist;\n        string name;\n        address payable project_owner;\n        uint256 project_start_timestamp;\n        uint256 project_end_timestamp;\n        mapping(address => Customer) customers;\n    }\n\n    address payable contract_owner;\n    uint256 public totalProjects = 0;\n    uint256 private extras = 100;\n\n    mapping(uint256 => Project) public projects;\n\n    event LowRating(address _project_owner);\n\n    constructor() public {\n        contract_owner = msg.sender;\n    }\n\n    function createProject(\n        string memory _name,\n        uint256 _project_start_timestamp,\n        uint256 _project_end_timestamp\n    ) public {\n        require(\n            contract_owner == msg.sender,\n            \"Only owner is allowed to create the project.\"\n        );\n        projects[totalProjects].name = _name;\n        projects[totalProjects].project_started = false;\n        projects[totalProjects].exist = true;\n        projects[totalProjects]\n        .project_start_timestamp = _project_start_timestamp;\n        projects[totalProjects].project_end_timestamp = _project_end_timestamp;\n        totalProjects++;\n    }\n\n    // Fallback function to deposit the ethers to the contract\n    fallback() external payable {}\n\n    function contractBalance() public returns (uint256) {\n        return address(this).balance;\n    }\n\n    // Calculates onePercent of the uint256 amount sent\n    function onePercent(uint256 amount) internal view returns (uint256) {\n        uint256 roundValue = amount.ceil(extras);\n        uint256 onePercentofTokens = roundValue.mul(extras).div(\n            extras * 10**uint256(2)\n        );\n        return onePercentofTokens;\n    }\n\n    function startProject(uint256 _project_id, uint256 _weiAmount)\n        public\n        payable\n    {\n        require(projects[_project_id].exist == true, \"Unknown Project ID\");\n        require(\n            projects[_project_id].project_started == false,\n            \"Project already started\"\n        );\n        if (projects[_project_id].project_start_timestamp < block.timestamp) {\n            // deduct 1 per cent amount from the wallet\n            if (_weiAmount < (onePercent(address(this).balance) * 1)) {\n                revert(\n                    \"Project time crossed. Add 1 percent of contract address\"\n                );\n            }\n            address(this).transfer(_weiAmount);\n        }\n        projects[_project_id].project_owner = msg.sender;\n        projects[_project_id].project_started = true;\n        // release 10% if project starts\n        msg.sender.transfer(onePercent(address(this).balance) * 10);\n    }\n\n    function rateProject(uint256 _project_id, uint256 _rating, string memory _review) public payable {\n        require(_rating > 0 && _rating < 10, \"Invalid rating\");\n        require(\n            projects[_project_id].project_started == true,\n            \"Project Not started\"\n        );\n        require(\n            projects[_project_id].project_owner != msg.sender,\n            \"Project owner cannot rate.\"\n        );\n        // unblock if blocked\n        if (projects[_project_id].project_blocked)\n            projects[_project_id].project_blocked = false;\n        // add to customers\n        projects[_project_id].customers[msg.sender].rating = _rating;\n        projects[_project_id].customers[msg.sender].review = _review;\n        if (_rating == 7) {\n            // warning issued to a private entity\n            emit LowRating(projects[_project_id].project_owner);\n        } else if (_rating == 6) {\n            // 3 per cent deduction from the wallet\n            // TODO:\n        } else if (_rating >= 5) {\n            // wallet blocked\n            projects[_project_id].project_blocked = true;\n        }\n    }\n\n    function completedProject(uint256 _project_id) public {\n        require(\n            projects[_project_id].project_owner == msg.sender,\n            \"Only owner is allowed to complete the project\"\n        );\n        require(\n            projects[_project_id].project_blocked == false,\n            \"Project blocked cannot complete.\"\n        );\n        // if project finished on time\n        if (projects[_project_id].project_end_timestamp < block.timestamp) {\n            projects[_project_id].project_owner.transfer(\n                onePercent(address(this).balance) * 70\n            );\n        }\n    }\n\n    function getRating(uint256 _project_id, address customer)\n        public\n        view\n        returns (string memory, uint256)\n    {\n        return (\n            projects[_project_id].customers[customer].review,\n            projects[_project_id].customers[customer].rating\n        );\n    }\n}\n",
  "sourcePath": "/home/sarath/Projects/EscrowDapp/Escrow-Dapp/contracts/EscrowDapp.sol",
  "compiler": {
    "name": "solc",
    "version": "0.7.0+commit.9e61f92b.Emscripten.clang"
  },
  "schemaVersion": "3.4.1",
  "updatedAt": "2021-06-25T10:09:37.456Z",
  "networkType": "ethereum",
  "devdoc": {
    "kind": "dev",
    "methods": {},
    "version": 1
  },
  "userdoc": {
    "kind": "user",
    "methods": {},
    "version": 1
  }
}